:1000000000800020BD010000D120000095200000EC
:10001000952000009520000095200000952000000C
:10002000952000009520000095200000D1200000C0
:10003000D120000095200000D12000008520000084
:10004000D1200000D1200000D1200000D1200000EC
:10005000D1200000D1200000D1200000D1200000DC
:10006000D1200000D1200000D1200000D1200000CC
:10007000D1200000D1200000D1200000D1200000BC
:10008000D1200000D1200000D1200000D1200000AC
:10009000D1200000D1200000D1200000D12000009C
:1000A000D1200000D1200000D1200000D12000008C
:1000B000D1200000D1200000D1200000D12000007C
:1000C000D1200000D1200000D1200000D12000006C
:1000D000D1200000D1200000D1200000D12000005C
:1000E000D1200000D1200000D1200000D12000004C
:1000F000D1200000E1380000D12000004540000080
:10010000D1200000C1450000D1200000D120000016
:10011000D1200000D1200000D1200000D12000001B
:10012000D1200000D1200000D1200000D12000000B
:10013000D1200000D1200000D1200000D1200000FB
:10014000D1200000D1200000D1200000D1200000EB
:10015000D1200000D1200000D1200000D1200000DB
:10016000D120000049250000D1200000D12000004E
:10017000D1200000D1200000D1200000D1200000BB
:10018000D1200000D1200000D1200000D1200000AB
:10019000D1200000D1200000D1200000D12000009B
:1001A000D1200000D1200000D1200000D12000008B
:1001B000D1200000D1200000D1200000574B4CF28C
:1001C000205210B51A804DF628121A8000BF00BFC9
:1001D00001F082FF524B4FF010621A60514A9A6050
:1001E000514ADA60A3F53043203B1A6812F480725A
:1001F00004D14E490A604FF4A8521A604C4B1A7849
:10020000110703D51A7842F008021A70494B4A4C7C
:100210004A482A221A704A4A00239918A14203D256
:10022000195899500433F8E7464B474900228B424E
:1002300002D243F8042BFAE74448454900235A58B0
:100240001A500433B3F5DE7FF9D1424B424A802184
:1002500003F8011B9342FBD1404B3C4A1A60404BD0
:100260000A221A70A3F5805324225A70A0221A7011
:100270009A799207FCD59A79D406FCD4394A9379B5
:1002800003F00C03082B374BF9D103221A714022DB
:100290005A719A799006FCD5324A9179314B4906C8
:1002A000FBD5314A314911600221516020221A7078
:1002B0009A7902F00C020C2AFAD12D4B2D4A1A60C1
:1002C0002D4B2E4A1A6000225A60072243F8042C54
:1002D0002B4AC3F80C2D62B601F0F6FF134B1B68D6
:1002E000DA0705D5274801F033FF274B274A1A6064
:1002F000274B1B785B0609D5234C244A236893427D
:1003000004D1204801F024FF0023236005F070F899
:1003100001F0E8FE02F07CFEFEE700BF0E20054083
:1003200030800440823F04000100002B14D00340C1
:1003300002D0074000E007405490FF1F0463000014
:100340006087FF1F5890FF1FF893FF1F0082FF1F59
:100350000000000000E400E05FE400E008ED00E0E1
:100360000050064000400640448004400000030165
:1003700004800440C010050014E000E0FF76010096
:1003800000002020256556011CE00340A5C3945AB7
:1003900000F00740FFFFFFFFFFFFFFFFFFFFFFFF32
:1003A000FFFFFFFFFFFFFFFFFFFFFFFFFFFFFFFF5D
:1003B000FFFFFFFFFFFFFFFFFFFFFFFFFFFFFFFF4D
:1003C000FFFFFFFFFFFFFFFFFFFFFFFFFFFFFFFF3D
:1003D000FFFFFFFFFFFFFFFFFFFFFFFFFFFFFFFF2D
:1003E000FFFFFFFFFFFFFFFFFFFFFFFFFFFFFFFF1D
:1003F000FFFFFFFFFFFFFFFFFFFFFFFFFFFFFFFF0D
:10040000FFFFFFFFFFFFFFFFFFFFFFFFDEF9FFFF23
:1004100010B5054C237833B9044B13B10448AFF33E
:1004200000800123237010BD5890FF1F00000000C2
:100430000463000008B5064B1BB106480649AFF33C
:1004400000800648036813B1054B03B1984708BD07
:1004500000000000046300005C90FF1F5490FF1F29
:100460000000000010B586B0144C154B0093154BDE
:100470000193FF2302934FF6FF72039204932046E9
:1004800011496422114B00F035FE40F2FE730093D7
:10049000042301932046012182224B2300F066FEB3
:1004A00020460121162200F0CBFEA36823F00103B1
:1004B000A360204601F012FA06B010BD7890FF1F2D
:1004C000F85D0000105E0000D85D0000E45D0000F3
:1004D0002DE9F041C8B0384B1B6813F0010F0CD167
:1004E000354801F00BFE40B1344B1B680893089A65
:1004F000334B1A60304801F007FE0BA80F2100F0C3
:10050000FDFA2F4B1A6802F6C4122C4B1B68099394
:10051000099B9A423ED2294B1B680A930A9A284BA0
:100520001A601FA7D7E90067CDE900671EA5D5E9C6
:100530000045CDE902450BA801210A46042300F03D
:100540008BFADFF8808040460BA9002201F052FAB6
:10055000CDE9006702230293CDE90445CDE90645C4
:100560000BA80121042200F027FA40460BA9002223
:1005700001F040FACDE90045CDE902450BA8012183
:100580000BA3D3E9002300F0CFF940460BA90022CA
:1005900001F030FA48B0BDE8F08100BFAFF3008051
:1005A00000000060666272400000000065CDCDC1B1
:1005B00000000060660A7240D890FF1FE090FF1FA5
:1005C0007490FF1F7890FF1F08B5FFF781FF024866
:1005D00001F0A6FC08BD00BF7890FF1F08B50248D7
:1005E000022101F037FD08BD7890FF1F4FF4007322
:1005F0002B4A1360043213602A4B1A7842F08002AF
:100600001A70A3F5E733A3F5E2731A6842F01002FB
:100610001A60A3F51033383B1A6822F400521A60AE
:10062000043B1A6842F080421A601A6822F00042C5
:100630001A601A46136813F4801FFBD11A4B1A680C
:1006400082F000721A601A46136813F0007FFBD123
:10065000154A136813F0807FFBD0134B1A6842F4DD
:1006600000321A601A6842F000521A600F4B994229
:1006700003D10F4A0F4B1A600DE00F4B994203D183
:100680000E4A0C4B1A6006E00D4B99420CBF0D4A06
:100690000D4A084B1A600023037043704360704793
:1006A00030900440005006400040024090D00300CB
:1006B00002007B030440024020A1070002007B01EE
:1006C00040420F000200090102007B070022214B7B
:1006D0001A604B7873B10B78934214BF4FF04043CC
:1006E0004FF080434A6822F0604243EA42021A4BCC
:1006F0001A600CE00B78002B14BF4FF0004300236E
:100700004A68C2F30A0243EAC242134B1A60134B0F
:100710001A6822F080521A601A46136813F0807F1C
:10072000FBD10E4A136813F0006FFBD14FF000634A
:100730000B4A1360103213601032136010321360D2
:1007400010321360103213601032136010321360D5
:10075000704700BF10400240484002400040024045
:1007600000410240024B1868C0F34010704700BFC0
:1007700030400240F0B583B005460C46CB8823B12B
:10078000274B1B680093009F00E00027244E0AE0DF
:10079000E388002B41D0316801910199C91B8B423C
:1007A0003BD902F0CBFC2846FFF7DCFF02460028CD
:1007B000EED01C4A1368C3F30343D9B261711268C7
:1007C000C2F3405222711848006820F060400AB11C
:1007D000206001E0800C2060144A1268E272100A66
:1007E000A072100C6072120E2272042908D9104AED
:1007F0001268E273110AA173110C6173120E227355
:10080000DBB2072B05DC0021E21811720133082B43
:10081000FAD12022074B1A600122104603B0F0BD26
:10082000E090FF1F80400240844002408840024028
:100830008C400240304002402DE9F04182B00D462C
:10084000CB882BB1334B1B680093DDF8008001E0AF
:100850004FF000080824304E2E4FA3191B011A68D0
:1008600002F07062B2F1006F03D11A602A7982B986
:1008700016E0EB881BB901340F2CEEDD44E03A683A
:100880000192019AC8EB020293423FD902F056FC52
:10089000E3E720012A6822F060422049425006E046
:1008A00021012A68C2F30A0290041C4A88502401DC
:1008B000297A6A7A120442EA0161EA7A0A43A97A39
:1008C00042EA0121164AA150297B6A7B120442EABE
:1008D0000161EA7B0A43A97B42EA0121114AA15046
:1008E0002A7942B16A7902F00F02120442F046629C
:1008F0001A6001200BE06A7902F00F02120442F044
:1009000040621A60012002E0002000E0002002B0F6
:10091000BDE8F081E090FF1F0824000484400240FD
:10092000884002408C4002402DE9F04784B0824666
:100930000C4616461F461E4900F0D2F806238AF8D8
:1009400000305046214600F0FDF80FF25409D9E975
:100950000089CDE9008914A5D5E90045CDE9024516
:10096000504632463B4600F07FF9CDE90089CDE99B
:1009700002455046DDE90C2300F076F900220D4BCC
:10098000CDE90023CDE902455046DDE90E2300F014
:100990006BF95046FF2100F0D5F804B0BDE8F087B0
:1009A00000000040E17A843F0000000065CDCDC129
:1009B00006FD01000000594070B584B006460D46A2
:1009C0001446234900F08CF806233370304629463C
:1009D00000F0B8F804F03F049DF8281044EA8111B3
:1009E0003046C9B200F0AEF813A3D3E90023CDE935
:1009F000002313A5D5E90045CDE902453046DDE9E0
:100A0000082300F031F910A3D3E90023CDE9002336
:100A1000CDE902453046DDE90C2300F003F9002260
:100A20000C4BCDE90023CDE902453046DDE90E232C
:100A300000F01AF904B070BD00000040E17A843F74
:100A40000000000065CDCDC1000000E04D62703FA8
:100A500007FD0100000059402DE9F04184B08046B7
:100A60000E4615461C461C4900F03AF8062388F845
:100A700000304046314600F065F84046294600F017
:100A800061F84046214600F05DF80FA7D7E90067FE
:100A9000CDE900670EA5D5E90045CDE90245404600
:100AA000DDE90A2300F0E0F8CDE90067CDE9024571
:100AB0004046DDE90C2300F0D7F84046FF2100F066
:100AC00041F804B0BDE8F08100000040E17A843FC5
:100AD0000000000065CDCDC108FD0100AFF300802E
:100AE00082B00023C3604160034B1B680193019BEC
:100AF000C0F8F03002B07047E090FF1F38B50446F0
:100B00000D460021C16006220270FFF7E9FF257241
:100B1000FF236372204638BD38B504461D460023C6
:100B2000C36001F0070101701146FFF7D9FF25727C
:100B30009DF81030637238BD00234360C360C0F875
:100B4000F0307047C368C21811740133C360704736
:100B500070B5049C2668B51C256004F0B1FA044603
:100B60000D460022002304F007FC40B12046294630
:100B70000022084B03F0C8FF04F012FC07E02046F7
:100B800029460022034B03F0BDFF04F009FC059B3E
:100B9000985370BD0000E03F70B5049C2668B51CFA
:100BA000256004F08DFA04460D460022002304F06F
:100BB000E3FB40B1204629460022084B03F0A4FF86
:100BC00004F0EEFB07E0204629460022034B03F029
:100BD00099FF04F0E5FB059B985370BD0000E03FD2
:100BE0000B68D0540B6801330B600012D0540B68B3
:100BF00001330B60704700BF08B50246084602F19A
:100C00000C011032FFF7ECFF08BD00BF0B68D05499
:100C10000B6801330B600012D0540B6801330B607A
:100C2000704700BF70B582B0064614461D46104698
:100C30001946DDE9082304F081FB58B906F10C03DD
:100C400000931036019620462946DDE90623FFF77A
:100C50007FFF07E047F6FF7006F10C0106F1100276
:100C6000FFF7D4FF02B070BD70B582B006461446DF
:100C70001D4610461946DDE9082304F05FFB58B90C
:100C800006F10C0300931036019620462946DDE953
:100C90000623FFF781FF07E04FF6FF7006F10C0116
:100CA00006F11002FFF7B2FF02B070BD70B4146815
:100CB0001855040A44EA01640D0A116801311160F3
:100CC0005C54200A40EA0560290A14680134146063
:100CD0001855040A44EA01640D0A116801311160D3
:100CE0005C54200A40EA0560290A14680134146043
:100CF0001855040A44EA01640D0A116801311160B3
:100D00005C54200A40EA0560290A14680134146022
:100D10001855166801361660040A44EA01649C55A9
:100D200013680133136070BC704700BF10B50446F0
:100D30001046194604F10C0204F11003FFF7B6FF48
:100D400010BD00BF70B400291BDD0578B5B10024CB
:100D500016689D5501341568013515608C4210D018
:100D600010F8015F002DF3D109E010681D54013423
:100D7000106801301060A142F7DC02E00024002579
:100D8000F3E770BC704700BF08B50346084611463C
:100D900003F10C021033FFF7D5FF08BD2DE9F04732
:100DA000054617460E46B9B100244FF01009A0467B
:100DB000DFF828A007E0002C05DD2B685B682846DB
:100DC0005146012298472846395D4A46434602F07B
:100DD0003FF90134B442EEDBBDE8F087285E000045
:100DE00070B5054616460C46002956D04368002BC0
:100DF00053D0C368002B13DC70BD23685B682046AA
:100E00002649062298472046297B05F11002FFF764
:100E1000C5FF23685B68204621490222984770BDC0
:100E20000B685B6808461F490422984720462978CA
:100E30000A22002302F00CF923685B6820461A4955
:100E400005229847204669680A22002302F000F92B
:100E500023685B6820461549082298472046297A6E
:100E60000A22002302F0F4F823685B682046104948
:100E7000062298472046697A0A22002302F0E8F801
:100E800023685B6820460B49052298472046E9689D
:100E900002F01AF9002EBCD1AFE770BD2C5E000045
:100EA000345E0000385E0000405E0000485E0000D6
:100EB000545E00005C5E000030B40C78651C0D7060
:100EC00010551C6804441C60102804D10B78581C71
:100ED00008701021D15430BC704700BFF0B5E7B0A6
:100EE00005464468D0F8F060002301930F460029BE
:100EF00000F0BA80002C00F0B780C368002B42DC01
:100F0000B2E02B19187C0DF1030102AA01ABFFF727
:100F1000D3FF0134EB68A342F3DC019A534B134037
:100F2000002B03DA013B63F0FF03013301930BB3A2
:100F30005B42DAB29DF80330591CC9B28DF8031038
:100F400002A8C254102A03D102338DF80330425450
:100F50009DF8033002A91022CA549A1CD2B28DF80F
:100F600003200133DBB20320C8543B685B6838467A
:100F7000984779E09DF803305A1C8DF80320002132
:100F800002AAD154E4E710238DF8083002238DF82B
:100F900003308DF8093093200DF1030102AA01AB53
:100FA000FFF78AFFEB6803F10B00C0B20DF10301FC
:100FB00002AA01ABFFF780FF28780DF1030102AA16
:100FC00001ABFFF779FFE0B20DF1030102AA01AB1B
:100FD000FFF772FFC4F307200DF1030102AA01AB72
:100FE000FFF76AFFC4F307400DF1030102AA01AB4A
:100FF000FFF762FF687A0DF1030102AA01ABFFF768
:101000005BFF287A0DF1030102AA01ABFFF754FF41
:10101000F0B20DF1030102AA01ABFFF74DFFC6F3D9
:1010200007200DF1030102AA01ABFFF745FFC6F34C
:1010300007400DF1030102AA01ABFFF73DFF300E9F
:101040000DF1030102AA01ABFFF736FF287B0DF17A
:10105000030102AA01ABFFF72FFFEB68002BC8BF0B
:1010600000243FF74EAF58E767B0F0BDFF000080A7
:10107000002806DD0B460144002203F8012B8B42B9
:10108000FBD1704770B44B1E002B09DD04784CB1C6
:101090001E4600252B4654550133B34206D102E0CB
:1010A000002300E00023994206DC0CE01D4610F806
:1010B000014F002CEFD1F6E713445418002003F839
:1010C000010BA342FBD10A44002302F8013C70BC8F
:1010D000704700BF70B506460D46144608461146D7
:1010E000FFF7C6FF26B1304629462246FFF7CAFF62
:1010F00070BD00BF2DE9F04104460E4690461F46E4
:10110000436B43B9902001F08BFF054600219022EC
:1011100004F03AFC6563656B2563099B2B60636B88
:10112000C3F80480626B384621210832FFF7D2FFF2
:10113000626B069821212932FFF7CCFF626B07987A
:1011400021214A32FFF7C6FF626B304621216B3204
:10115000FFF7C0FF636B9DF8282083F88C20636B3A
:101160009DF8202083F88D20BDE8F08170B4039CA9
:101170009DF810504FF6FF76B44205D0066AC6F3CC
:10118000140646EA44540462B1F1FF3F06D0C1F3AD
:101190001401046A640D64050C430462FF2A18BF3D
:1011A00080F82520FF2B1CBF5B0080F82630FF2D28
:1011B00007D090F8273003F00F0343EA051580F8B5
:1011C000275070BC704700BF10B582B00446174B63
:1011D000036000220023C0E90823154B8363154BED
:1011E00003640023C3634364836480F84C30036565
:1011F0004365114AC260C36203744361037603719D
:10120000437183710B22826043630C4B036340F292
:10121000FE73009304230193012182221923FFF717
:10122000A5FF0123A362204602B010BD705E00003E
:10123000A85F0000805E0000D891FF1F185F0000CB
:101240004171C26200230376704700BFF0B4049D71
:10125000040C070AC0F300661870C0F382600870BF
:10126000E3B2EF2B05D82F701C0244EA0646166045
:1012700008E0FF232B70E4B2FFB247EA042444EAFB
:1012800006461660F0BC704710B4C1F30724EF2C7B
:1012900098BF42EA032242EA012100F0070041EA36
:1012A00080605DF8044B704770B400241C700C46DD
:1012B00011B9002010703FE001211170B4F5684FA2
:1012C00028D0B4F56A4F27D0B4F56E4F26D01B490D
:1012D0008C422CD128E00646816B49B10A68A242B3
:1012E0001ED02AB151F8042FA2421BD0002AF9D1F6
:1012F000316C49B10A68A2421CD02AB151F8042FBE
:10130000A24217D0002AF9D104350430082DE2D1C9
:10131000002011E001200FE001200DE001200BE092
:10132000012009E0012007E00120187004E00025F9
:101330001570D0E70120187070BC704700ED0100F7
:101340002DE9F04F89B00546914698460DF11503F9
:10135000009308460DF1130106AA05ABFFF776FFCF
:10136000284606990DF117020DF11603FFF79CFFB1
:10137000834638B9AB6813F0100F18BF4FF0FF3435
:1013800040F01D819DF81630002B4FD098F800706A
:1013900017F01F0F4AD095F84C1081B106989DF8B0
:1013A0001460AB6C002403E00134FC338C4207DA98
:1013B0005A688242F8D11A7AB242F5D100E000248C
:1013C000A14200F0F480C4EB841A4FEA8A0A564620
:1013D000A86C504490F8F8300133BB4207D0012389
:1013E00080F8F530002380F8F630FFF7A5FB98F879
:1013F0000020AB6C534483F8F8204846B9F1010F44
:1014000040F3BE800123AA6C324418F8011F92F801
:10141000F9703A4411740133AA6C324492F8F9100D
:10142000013182F8F9108342EDDBA9E0664B1B68BD
:101430000793079B039395F84C3013B3AE6C96F863
:10144000F5201ABB069A9DF8140006F1FC019A4695
:10145000DDF80CC000240DE0D6F8F06066453CBF16
:10146000A246B4460134A34214DD0E46FC3111F805
:10147000077C7FB977689742EED1377A8742EBD104
:1014800008E09A46DDF80CC0002403E09A46DDF837
:101490000CC000249C4209D10CF1640C039B9C45B8
:1014A00080F08880A24500F088805446C4EB841701
:1014B000BF003E46AB6C3B444FF0000A83F8F5A0FA
:1014C000AB6C3B4483F8F7B0AB6C3B449DF8172002
:1014D00083F8F620A86C9DF813109DF814309DF841
:1014E000152000923844069AFFF716FBAB6C3B447C
:1014F00083F8F9A09DF8163013B398F80020AB6C70
:101500003B4483F8F820AB6C3B4498F80120DA6048
:101510004846B9F1020F33DD0223AA6C324418F8B1
:10152000031092F8F9703A4411740133AA6C3244F2
:1015300092F8F910013182F8F9108342EDDB1FE0D7
:10154000AB6C3B44002283F8F8204846AB6C3B442C
:10155000C3F80C90B9F1000F12D01346AA6C3244B4
:1015600018F8031092F8F9703A4411740133AA6C18
:10157000324492F8F910013182F8F9109842EDDC0A
:10158000C4EB84139B00AA6C1A4492F8F900D1684A
:101590008842B4BF0021012182F8F410AA6C1344E0
:1015A00093F8F430002B08BF4FF0FF3407E04FF002
:1015B000FF3404E04FF0FF3401E04FF0FF342046E9
:1015C00009B0BDE8F08F00BFE090FF1F30B4846A1F
:1015D000002C0EDD0D46C36A8B4210D000F12C03A7
:1015E00000200130A04207D053F8042FAA42F8D1BE
:1015F00006E04FF0FF3003E04FF0FF3000E0002046
:1016000030BC704708B5FFF7E1FF013018BF01207B
:1016100008BD00BF38B504460D46836813F0010FBE
:1016200020D04279032A14D138BD2046297AFFF709
:10163000E9FF90B96379012B0FD138BD2846E168E5
:10164000FFF74CFC38BD2846E1680022FFF7C8FBD5
:1016500038BD13F0080FEDD0E7E7A379002BEDD0EC
:10166000012BF0D038BD00BF08B591F8F7301BB999
:10167000836813F0040F01D1FFF7CCFF08BD00BF52
:10168000F8B504460E464A49FFF72AFA06232370A6
:101690002046B6F90010FFF7AFFA2046B6F904105D
:1016A000FFF7AAFA317A0025002959D07BE02046BD
:1016B000FFF748FA0135202D54D07319197A002903
:1016C000F5D14DE020463946FFF73CFA01351F2D94
:1016D000F8DD47E02046FFF735FA0135202D47D0E9
:1016E000731993F829100029F4D13FE020463946B8
:1016F000FFF728FA01351F2DF8DD39E02046FFF706
:1017000021FA0135202D39D0731993F84A10002998
:10171000F4D131E020463946FFF714FA01351F2D88
:10172000F8DD2BE02046FFF70DFA0135202D0CD017
:10173000731993F86B100029F4D123E02046394641
:10174000FFF700FA01351F2DF8DD204696F88C10C2
:10175000FFF7F8F9204696F88D10FFF7F3F9F8BD7A
:101760000027AFE796F82910C1B900250027BDE78B
:1017700096F84A1069B900250027CBE796F86B1058
:1017800011B900250027D9E72046FFF7DBF901252D
:10179000CEE72046FFF7D6F90125B5E72046FFF74B
:1017A000D1F901259CE72046FFF7CCF9012584E714
:1017B00014F001002DE9F003866A002400EB810794
:1017C000A1464FF0010800E04446FB6AFE2B9CBF97
:1017D0000133FB62002E15DD002CF5D102464B468D
:1017E000A4468B4206D0FC6AD56AAC4214BF0024E2
:1017F000012400E064460133B34203D00432002CDC
:10180000EFD0E1E7002CDFD1BDE8F003704700BF67
:10181000F8B504460F4616461D464FF46841FFF7DB
:101820005FF90623237020463946FFF78BF92046DF
:101830003146FFF787F92046FF21FFF783F920465D
:10184000FF21FFF77FF92046FF21FFF77BF92046B4
:10185000E9B2FFF777F92046C5F30721FFF772F9E0
:101860002046C5F30741FFF76DF9F8BD70B5064690
:1018700014461D464FF46E41FFF732F906233370CC
:10188000304622462B46FFF751FA70BD70B5BEB008
:1018900005460E461446FF2902D1B2F1FF3F02D0A1
:1018A000002C01DA18E00024AB6AA34214DD05EB3A
:1018B000840301A893F82C10FFF720F98DF80D6030
:1018C00005EBC40301A8D3E90823FFF7CFFF28469F
:1018D00001A9224600F08EF83EB070BD2DE9F0411E
:1018E00082B00446037C002B77D1836C83BB90F8D5
:1018F0004C6016B9052680F84C60C6EB8610800057
:1019000001F092FB8046751E56B106460F27304601
:101910003946FFF7F3F8013DFC36B5F1FF3FF6D14C
:10192000C4F8488094F84C3093B100252E464FF00F
:1019300001082F46A06C284480F8F58080F8F670E6
:10194000FFF7FAF80136FC3594F84C30B342F1DC7D
:1019500023685B68204698472074E568B5B1A37991
:10196000012B13D148B12B685B6828461D49102212
:101970009847284601F05CFB08E02B685B68284626
:10198000194919229847284601F052FBC82000F057
:1019900085FC237C0BB92379FBB16379EBB1033B65
:1019A000DBB2012B19D900236361E5685DB1A3792E
:1019B000012B08D12B685B6828460C4913229847F5
:1019C000284601F035FB2046FF210022FFF75EFF8D
:1019D000074B1B680193019B6361207C02B0BDE84B
:1019E000F08100BFBC5E0000D05E0000EC5E000035
:1019F000E090FF1F2DE9F04F89B005460C46836A41
:101A0000934240F3FD804E6816F0FF0F1CBFFF238A
:101A10004B72002A03DB00EB8202D36A0B72227A3C
:101A2000FD2A00F2F08020783146637AFFF72CFC23
:101A300080466B79002B00F0E980002E00F0E980F1
:101A40002B79012B00F0CD801BB1022B00F0D1804F
:101A5000E2E02846FFF742FF8246002800F0F480CB
:101A60006B693BB17A4A12680592059AFA33934240
:101A700000F2D580E268082A2BDC2B680121009156
:101A80001E6828464146D2B204F11003B047824690
:101A9000002840F09D80E868002800F09980AB792C
:101AA000012B40F0958003685B686A4904229847DF
:101AB000E86861680A22002301F0CAFAEE68336818
:101AC0005B68304664490C229847304601F0B0FA12
:101AD0007EE0073A614B83FB02131344D217C2EB3B
:101AE000A3035F4A12684FEA421B9A1C002A60DD7A
:101AF00003924FF00009CE464F462B464D4699467D
:101B000045EA0B038DF8183035B1E368734500F3EF
:101B10008F807646012319E0E3688DF8193002239F
:101B200004EB0E02D118887B06A958540133082B08
:101B3000F8D10EF106060EE0A219117C06AA9954FE
:101B400001360133764506D0B042F5DC06AA9F5433
:101B50000133072BFADDD9F8003001220092D3F8C7
:101B600000C048464146082206ABE04782460028AE
:101B700058D14D46D9F80C00F8B199F80630012B30
:101B80001BD103685B68334904229847D9F80C00DD
:101B900061680A22002301F05BFAD9F80C6033680F
:101BA0005B6830462C490C229847304601F040FAD9
:101BB00003E04FF0010A00E04D46294B1B6801335A
:101BC000072B02DC264A136002E00022244B1A6035
:101BD000AB6813F0080F37D028462146FFF71AFDEF
:101BE00032E02046E9680022FFF7FAF84FF0010AD8
:101BF0002AE02046E968FFF771F94FF0010A23E077
:101C00004FF0000A20E04FF0000A1DE04FF0000AFC
:101C10001AE04FF0000A17E04FF0000A14E04FF00E
:101C2000000A11E00135039B9D42C5D0B64667E727
:101C300004EB0E031B7C8DF819300EF10106E068F1
:101C40000EF1070E02237FE7504609B0BDE8F08F82
:101C5000E090FF1F005F0000085F0000932449929E
:101C6000DC90FF1F30B5BFB005460C1E14DB836A45
:101C70009C4211DA00EB840301A893F82C10FEF7C4
:101C80003DFF01A80121FF22044BFFF7C1FD2846BB
:101C900001A92246FFF7AEFE3FB030BD16F00100AD
:101CA0002DE9F04383B080460E46097AFFF78EFC9B
:101CB0008146B0F1FF3F2CD0031D08EBC303D3E9ED
:101CC0000045D6E90467BD4208BFB44205D240468C
:101CD000FF214A46FFF7DAFD1BE0AF4208BFA642EC
:101CE00002D11A7901321A7140464946FFF762FD66
:101CF000012388F818300023C8F814304046FF212B
:101D00004A46FFF7C3FD044B1B680193019BC8F8CB
:101D1000143003B0BDE8F083E090FF1FF8B504462F
:101D20000F4616461D461649FEF7DAFE06232370B7
:101D3000204639B2FEF760FF204631B2FEF75CFF65
:101D4000204629462022FFF71FF820460699202228
:101D5000FFF71AF8204607992022FFF715F82046CA
:101D600008992022FFF710F820469DF82410FEF76E
:101D7000E9FE20469DF82810FEF7E4FEF8BD00BFFE
:101D800014F0010030B5C5B004460D1E2CDB836A8B
:101D90009D4229DA00EB850307A893F82C10FEF783
:101DA000ADFE236B626B934215D119685A6803F13B
:101DB0002900009003F14A00019003F16B000290AA
:101DC00093F88C00039093F88D00049007A80833D3
:101DD000FFF7A4FF03E007A81946FFF751FC2046D0
:101DE00007A92A46FFF706FE45B030BD10B40346EA
:101DF000C068032814BF0020012000220A6040B1FF
:101E00009A7C5C7C240244EA02441A7C44EA020381
:101E10000B605DF8044B7047F0B5BFB006460C464A
:101E200001A80F21FEF76AFE657A30462946FFF7C2
:101E3000CDFB0746FF2D03D0B0F1FF3F03D136E0C5
:101E4000B0F1FF3F01D0257A00E0FF25204669462A
:101E5000FFF7CCFF0098174B98420BD00233984203
:101E60000DD0B0F56E4F0FD1304629463A46FFF7F8
:101E70000DFD1CE030463946FFF784FF17E0304681
:101E80003946FFF7EFFE12E0736D1BB1217A3A4637
:101E9000984760B901A80121FF22009BFFF7B8FC19
:101EA0008DF80D50304601A90022FFF7A3FD3FB089
:101EB000F0BD00BF14F0010038B504464379033B80
:101EC000DBB2012B23D9C1EB81118D00816C294438
:101ED00091F8F630EBB1836813F0020F01D0FFF7F1
:101EE00099FB6379BBB1A16C29444B68B3F56A4F88
:101EF00003D0B3F56E4F05D00FE02046FFF78CFFFF
:101F0000012038BD2046FFF7CBFE012038BD002060
:101F100038BD002038BD012038BD012038BD00BFCC
:101F200030B585B0044600238DF80330FFF7D6FCAA
:101F3000002833D023689D68204601A90DF10302D3
:101F400002ABA84750B3204601999DF8032002AB8D
:101F5000FFF7F6F9051E21DB20462946FFF7ACFF07
:101F600038B9C5EB8511A36C204603EB8101FFF75F
:101F70007BFB236D2BB1C5EB8510A26C02EB8000BF
:101F80009847C5EB8515A36C03EB8500012380F80A
:101F9000F530002380F8F630FEF7CEFD05B030BDF9
:101FA00030B585B0009101218DF804108DF8052021
:101FB0009DF8201011B1B0F85C1000E00021ADF8E0
:101FC000061015464AB1002200A911449C5C0C720F
:101FD0000132AA4201DA082AF6D1806D6946FEF77D
:101FE0002BFC012814BF0020012005B030BD00BF2C
:101FF00008B5816D0846FEF769FB012008BD00BFEA
:10200000F0B585B006460F4614461D46806DFEF7B6
:10201000A9FB002815DDB06D6946FEF7ABFB009B00
:102020003B609DF8053023706BB1002100A8084487
:10203000007A685401312078884206DD0829F5D1FC
:1020400005E0002004E0012002E0012000E0012082
:1020500005B0F0BD70B504460D46FFF7B5F8074B67
:102060002360082000F0DCFF06460549FEF7BEFAB3
:10207000A665A4F85C50204670BD00BF0860000053
:1020800090D00300024B1A6801321A60704700BFFB
:10209000E090FF1F08B50D4C236813F4802F01D08A
:1020A00000F052FA236813F4806F01D001F018FC9D
:1020B000236813F4006F01D001F0C4FF236813F408
:1020C000805FE9D002F07CFAE6E700BF348004408C
:1020D00008B5FFF7DFFF00BF1022014B1A807047E1
:1020E00000200540704700BF024A13681844106082
:1020F000184670476087FF1FFEE700BF0078D0F1E9
:10210000010038BF0020704701230370704700BFF3
:10211000EFF31383ABB9EFF31083ABB9EFF30583A0
:1021200023B10F2B05D9094A985C03E04FF4807066
:1021300000E00020EFF311833BB1834238BF184623
:1021400070474FF0FF30704700207047F0E300E029
:10215000044B00221A6004490A60044A10601022ED
:102160001A60704714D0034004D0034000D00340ED
:1021700021281ED80F4B53F8303093F8802212F0EC
:10218000FF0F08D019B1012283F880207047012287
:1021900083F800217047074B03EBC000436821B16F
:1021A0001A6842F003021A6070471A6822F00202AD
:1021B0001A6070471860000021284AD8254B03EBAD
:1021C000C0035B68012911D004291DD0214A52F8AF
:1021D0003020002082F8800200292FD0022931D03F
:1021E00003291FD040F203121A607047194A52F8AF
:1021F0003020012182F880124FF4A2721A601A680E
:1022000022F020021A607047124A52F83020012151
:1022100082F880124FF4A2721A601A6842F020020B
:102220001A6070474FF480721A601A6842F0020216
:102230001A601A6822F001021A6070474FF4807227
:102240001A6070474FF480721A601A6842F00302F5
:102250001A6070471860000072B60C4B1B680C4A7D
:1022600012680C49096862B611F0806F02D0322BF7
:1022700088BF0132C3F5BB33FF330749A1FB03031A
:102280009B094FF47A7000FB0230704718E000E0C1
:10229000E090FF1F04ED00E0ABAAAAAA38B50546FE
:1022A000FFF7DAFF044625B938BD013D0AD004F531
:1022B0007A74FFF7D1FF001BB0F57A7FF5D200F0FA
:1022C0003DFFF6E738BD00BF10B5264B4FF40002C6
:1022D0001A604FF080721A604FF000721A604FF06F
:1022E00080621A604FF000621A6000201E4B186076
:1022F0004BF6FF710433196028231C4A136008321F
:102300001360083213600832136008321360083219
:10231000136008321360083213600922144C2260E3
:1023200004F58054043420600434216004342360B4
:1023300008342360143C226004F5FE240434206039
:102340000C4801600C490B6008310B600B4B1A60A4
:1023500000F016FF4FF4C870FFF7A0FF00F074FC08
:1023600010BD00BF08E100E0048003400C80034082
:102370000080034008800B400C800B4000800B4025
:1023800030B40E4B1B7843F002020D4C04EBC20438
:1023900060600C48007800280CBF8824C82444EAF8
:1023A0000141074D45F8321080F00100054A1070D8
:1023B00083F00103014A137030BC70474C91FF1F3A
:1023C0000080FF1FC591FF1F10B4431E032B11D8BF
:1023D00072B60A4A52F8230050B14268074941F8E0
:1023E0002320074A32F813400188611A22F813109B
:1023F00062B600E000205DF8044B70473C91FF1F7F
:10240000E093FF1F013803280DD872B6074B53F82D
:1024100020302BB1002001305B68002BFBD100E0A5
:10242000002062B670470020704700BF9091FF1FE8
:1024300038B572B601231B491B4C5A1812F8012CEF
:1024400012F0080F24D09A0054F832506DB9164B90
:1024500003EBC20108304860144943F83210144BB2
:102460001A78013A1A7062B638BD42F0010254F887
:1024700032506DB90C4B03EBC201083048600D4976
:1024800043F832100A4B1A78013A1A7062B638BD16
:102490000133052BD1D162B60022054B1A7000F032
:1024A00037FC38BD586100000080FF1F88004000E5
:1024B000BA91FF1FC800400010B4431E032B37D849
:1024C000400140F010001C4A104472B61B4AD25C16
:1024D000032A09D8DFE802F019021B05083002229E
:1024E00016E00830042213E0154A52F823201AB9E6
:1024F000134A42F8231003E0124A52F82320516095
:10250000104A42F8231062B612E0032200E00522CE
:102510000A4CE25401F10803436000F00803002B69
:102520000CBF8823C8230A8843EA0243036062B6CB
:102530005DF8044B704700BF0080FF1FF890FF1F3D
:102540009091FF1FA091FF1F2DE9F84FA34CDFF8DA
:10255000E092DFF8E0A2DFF8E0B22578EDB215F006
:10256000040F1DD09E4B1B7813F0FF0F16D09D4B10
:102570001B7803F0FF022BB1531EDBB2994A137094
:1025800003B900BE984B1B7803F0FF0233B1531E12
:10259000DBB2954A13700BB900F016FD04232370CB
:1025A00015F0080F00F0E48299F80030DBB21D0945
:1025B00040F021828D4D9E0805EBC6035A6855F800
:1025C0003630C3F38303013B0C2B00F21082DFE8AB
:1025D00013F0CB01CB010E020E020E020E020E0210
:1025E0000E02E8010E020E020E020D008049136871
:1025F0000B6052684A607F4A45F8362000227E49C7
:102600000A607A490A618A6101217C4A11709BB291
:1026100040F28162934218D8B3F5D06F2ED2B3F551
:10262000817F00F01E8106D8802B00F0C980822BAC
:1026300000F0CC8066E140F20232934200F0268145
:10264000B3F5A06F00F062815CE142F22102934297
:1026500000F0868107D8B3F5086F00F0AB80B3F5C2
:10266000106F11D04EE142F22122934200F04181DD
:1026700042F22132934200F0498143E1604B5D68B0
:10268000002D40F0188130E1594B9A78544B1A7064
:10269000564D05F180062B6A13F0800F03D0686A4F
:1026A000083800F035FB0835B542F4D1DFF88C81ED
:1026B00000263746534AB05828B1456800F028FB39
:1026C0000DB12846F9E700234E4973504E4AB350E6
:1026D0004E4BF05828B1456800F01AFB0DB1284662
:1026E000F9E7002349497350494AB35028F8023F9B
:1026F000484BFB5C023B032B0AD8DFE803F00206E1
:1027000002060022434BDA5502E00122414BDA5522
:1027100001370436102ECDD100223F4B1A7001250F
:102720003E4EDFF81C81314F05EB080313F8013CE6
:1027300006F8043B13F0080F2DD000F0C9FA48B199
:10274000A90007EB451200F108035360344A47F82B
:10275000312007E0AB00002247F833202E4B1A78D7
:1027600001321A7000F0B4FA58B1AB0043F0010323
:1027700007EBC30100F108024A601E4A47F8332004
:1027800009E0AB0043F00103002247F83320224B5D
:102790001A7801321A70AA0042F00201002347F8A9
:1027A000313042F0030247F8323001351D4B9E4272
:1027B000BAD11EE20A4B1B781B4D2B700127AAE0F1
:1027C000194D00232B706B700227A4E0084B9B88E7
:1027D000042B37D90F22154B1A70C1E08020074017
:1027E000C491FF1F4D91FF1FC691FF1F0080FF1F67
:1027F000B091FF1FC8004000E490FF1FC591FF1F6C
:102800005C6100003C91FF1FE890FF1F9091FF1F4B
:10281000A091FF1FF890FF1FBA91FF1FC42007402F
:1028200088004000D4200740BC91FF1FC020074013
:10283000902007409420074098200740DE93FF1F18
:1028400058610000A04A0021117051709F4A12F88F
:10285000233013F0020F5CD09B4D01232B70022715
:1028600059E09B4B9B8803F07F03042B02DC984AC2
:1028700052881AB10F22954B1A7071E0934A12F8E0
:10288000231021F0020102F82310B2E1904B9B8843
:1028900003F07F03042B02DC8D4A52881AB10F2209
:1028A0008A4B1A705CE0894A12F8231041F0020149
:1028B00002F823109DE1864B5E889F88854BA3F12B
:1028C0000C02114633F80C0CB04209D133F80A0C53
:1028D000B84205D1360A032E0CBF2F7817891AE0AB
:1028E0000D690C330C32002DEBD10F22774B1A708F
:1028F00036E0794B1A68794B1A60754B9A78784BA9
:102900001A7076E10F22714B1A7029E000273D46BC
:1029100001E002276C4D6E4BDB889F4228BF1F46AB
:10292000402F34BF3E46402628463146FFF728FD5B
:102930003544BF1B03D13F2E00F2608110E0402FD1
:1029400034BF3E46402628463146FFF719FD354440
:10295000BF1B01D13F2E03D9624B1D60624B1F800C
:1029600001238AF8003042E0594B198842F22103D2
:10297000994212D15D4BD81D12F8011B03F8011FBB
:102980008342F9D15A4B1B68862B02D10F22594B37
:102990001A7000200146FFF7F3FC574B45F836301C
:1029A00025E0504B1E68BEB14F4FB7F80080B8F11C
:1029B000400F34BF4546402530462946FFF7E0FC2E
:1029C000C5EB08039BB23B800BB9402D01D13544C8
:1029D00000E00025434B1D603D4B1B88B3F5A06F05
:1029E00005D13B4B00225A709B788BF800300123B5
:1029F0008AF80030B9E0414E9F0806EBC708D8F8C6
:102A00000420A2F10800013DEDB213F0080F47D0F9
:102A100000F07EF93A4B53F825304BB35A683849E9
:102A200041F8252003F10802C8F80420354A525D18
:102A3000032A12D8DFE802F002060A0E0321314A07
:102A400051550AE002212F4A515506E005212D4A31
:102A5000515502E004212B4A515518F0080F0CBFC4
:102A60008822C8221B8842EA034346F837307CE0BC
:102A7000244B5B5D032B0BD8DFE803F0777702066E
:102A80000022204B5A5570E001221E4B5A556CE033
:102A900018F0080F0CBF022203221A4B5A5564E0AB
:102AA00056F837301B0C22F8083C002B55D0002379
:102AB00022F8063C42F8043C134B53F825302BBB5C
:102AC000114B43F8250025E0BC91FF1FC0200740B3
:102AD000B091FF1F68610000E090FF1FF093FF1F9F
:102AE000D491FF1FE490FF1FB891FF1FE793FF1FD2
:102AF000E893FF1F4D91FF1FC80040000080FF1F9B
:102B00009091FF1FF890FF1F3C91FF1F3F4B53F820
:102B1000253058603D4B43F825003D4B33F81510E8
:102B200032F8082C0A4423F8152000F0D1F860B1DF
:102B300000F10803C8F8043018F0080F354B364A86
:102B400008BF134646F837300FE0002346F8373009
:102B5000324B1A7801321A7007E018F0080F2D4B2B
:102B60002D4A08BF134646F8373008232370F4E493
:102B700015F0010F22D02A4902230B700022294BA5
:102B80001A70294B24481860284C5C6098602848CB
:102B9000D8601A619A610D20264B1870FF232648D1
:102BA00003700838037018300270244A13709F2293
:102BB000234B1A7001230B70BDE8F88F15F0800FBE
:102BC00005D00D221B4B1A708022403B1A7015F065
:102BD000020F06D0184B1A78D2B21A700222083BA4
:102BE0001A7015F0100F0ED01022164B1A70BDE897
:102BF000F88F00200146FFF7C3FBB1E6284600210D
:102C0000FFF7BEFBACE6BDE8F88F00BFE890FF1F02
:102C1000E093FF1FC800400088004000BA91FF1FEA
:102C2000942007404C91FF1F0080FF1FFC90FF1F66
:102C30005091FF1FC0200740882007408C2007408C
:102C4000842007408020074008B501F02DFD0023B7
:102C50001B491A465A50C81842600833882BF9D1CC
:102C6000184B1A6842F480221A60154BC3F30721EF
:102C7000154A1170C3F30741143211701B0E043250
:102C80001370FF23343A137008321370783A1370BC
:102C900001238432137000216C3211707C3A13705E
:102CA00070220A4B1A704FF40072A3F241331A607B
:102CB000102203F1C04303F5C8231A7008BD00BFFA
:102CC0000080FF1F348004409C20074049E400E05E
:102CD00072B60D4B1A68B2FA82F30B2B02D962B6A8
:102CE000002070474FF00041D94022EA0102064916
:102CF0000A6062B6054903EBC303DB00C818002273
:102D0000CA504260704700BF6487FF1F0084FF1FE6
:102D100008B50F4BC31A0F4AA2FB03131B090B2B59
:102D200014D80D4A12783AB10C4A127812F0FF0FFB
:102D300002D0FFF77DFB08BD72B6094A4FF0004193
:102D400021FA03F311681943116062B608BD00BF90
:102D50000084FF1F398EE338BA91FF1FC491FF1F13
:102D60006487FF1F10B5134B1B6853B9124B1B78B8
:102D700013F0FF0F18D00320FFF726FB0D4B186050
:102D8000A8B10C4B186843885A1C03441C7A03886A
:102D90009A4206D3FFF7BCFF0022064B1A6020467A
:102DA00010BD4280204610BD4FF0FF3010BD4FF0E7
:102DB000FF3010BDD091FF1FC491FF1F08B50D4B10
:102DC0001B6883B90C4B1B7813F0FF0F08D003204E
:102DD000FFF7FAFA074B186028B94FF0FF3008BD2B
:102DE0004FF0FF3008BD034B1B685A881344187A14
:102DF00008BD00BFD091FF1FC491FF1F044B9888EE
:102E0000044B1B681BB11A885B88D31A184470479F
:102E1000E093FF1FD091FF1F10B50B4B1B7813F0F1
:102E2000FF0F0FD0094B186820B1FFF771FF002288
:102E3000064B1A6003242046FFF7C6FA10B1FFF7CD
:102E400067FFF8E710BD00BFC491FF1FD091FF1FBF
:102E50002DE9F04704460122374B1A700E4600292F
:102E600064D0DFF8E080DFF8E0909A46334FD8F87E
:102E7000003083BB99F8003013F0FF0F06D1002219
:102E80002D4B1A704FF0FF30BDE8F0874AF2F9255C
:102E90000420FFF7B7FA07280AD801238AF8003080
:102EA000FFF716FFC8F80000A8B900238AF8003021
:102EB000013D01D03B7833B10122204B1A704FF015
:102EC000FF30BDE8F08700F039F999F8003013F0D1
:102ED000FF0FDDD1D3E700233B70D8F800104A88FC
:102EE000C2F14005AE4238BF354602F108030B443B
:102EF0002A444A80761B3DB1254414F8012B03F87F
:102F0000012BAC42F9D100E025464B883F2B07D975
:102F100040230B800420FFF7CFFA0023C8F80030CD
:102F20000522074B1A700EB12C46A0E70020024B79
:102F30001870BDE8F08700BFC791FF1FCC91FF1F3D
:102F4000C691FF1FC891FF1FC491FF1F00B583B03A
:102F500002AB03F8010D18460121FFF779FF03B01A
:102F60005DF804FB10B5144B1B7813F0FF0F21D054
:102F70000122124B1A70124B196851B10024114BE7
:102F80001C704B880B800420FFF796FA0C4B1C60DA
:102F90000DE0FFF79DFE014630B10022094B1A708B
:102FA0000420FFF789FA02E00122064B1A70002282
:102FB000024B1A7010BD00BFC491FF1FC791FF1FC5
:102FC000C891FF1FC691FF1F08B50E4B1B7813F069
:102FD000FF0F16D10C4B196841B14B880B800420B0
:102FE000FFF76AFA0022084B1A6008BDFFF770FE6F
:102FF000014618B10420FFF75FFA08BD0122034B18
:103000001A7008BDC791FF1FC891FF1FC691FF1F0F
:1030100008B5FDF727FAFDF7D7FA00F08FF8FAE7C1
:1030200008B502F00DFA08BD08B502F009FA08BDAE
:1030300000B583B0054B1B88ADF8043003685B68AE
:1030400001A90222984703B05DF804FB2861000043
:10305000F0B58BB0164622B903681B68C9B2984711
:103060002FE0012A08BF0A2621B930228DF8252039
:10307000212417E021243746B1FBF6F506FB151590
:10308000EDB22246092D94BF30353735EDB20DF142
:10309000280E724402F8245CB1FBF7F111B1013C37
:1030A000E4B2E9E733B1013CE4B20AAB23442D2298
:1030B00003F8242C03685B6801A92144C4F12202AF
:1030C00098470BB0F0BD00BF08B50029BABF494210
:1030D0002D2300230A22FFF7BBFF08BD08B5FFF729
:1030E0008DFE08BD08B5FFF73DFE08BD08B5FFF72A
:1030F00065FE08BD08B5FFF735FF08BD08B5FFF749
:103100008BFE08BD08B50846FFF720FF08BD00BFCD
:1031100008B508461146FFF79BFE08BD704700BF83
:10312000044B00221A714FF47A7199601A73024AA3
:103130001A607047D891FF1F3861000008B50F4B27
:103140001B78CBB901220D4B1A70FFF757FE08B15F
:10315000FFF7E4FF00F03AFB08B101F07BFB00F061
:10316000E7FE08B101F018FC01F0B4F908B101F074
:10317000B5FC0022014B1A7008BD00BFE891FF1F8B
:1031800060223A4B1A70E12201331A70384B1B78D7
:10319000082B10D1012203F1804303F56C331A6030
:1031A000132334490B6001F5FF2101F2FC710A6021
:1031B000314A13601FE00A2B0DD139222F4B1A60C0
:1031C00013232C490B6001F5FF2101F2FC710A6009
:1031D000294A13600FE00C2B0CBF35223D22274BF0
:1031E0001A60122323490B6001F5FF2101F2FC71E3
:1031F0000A60214A1360224B1B7833B10123214A14
:10320000136002F50022136005E000231D4A1360DD
:1032100002F5002213601C4B1B78012B06D880237B
:103220001A4A136002F5002213601AE0042B06D834
:103230008423164A136002F50022136011E0082B64
:1032400006D88523114A136002F50022136008E0B6
:10325000102B94BF862387230C4A136002F50022AB
:10326000136001220A4B1A70704700BF00400740EC
:103270006887FF1F0CB003400CB00B4008B0034040
:10328000EA91FF1F20B003406987FF1F24B003406D
:10329000E991FF1F30B40023B0FBF2F402FB1404E9
:1032A0001D46092C94BF30343734E4B2CC54B0FB03
:1032B000F2F008B10133EFE70D4400226A70934247
:1032C00007DD885CCC5C8C54C8540132013B9A42C7
:1032D000F7DB084630BC7047254B1A6842F4806221
:1032E0001A600023234A1370234A1370234A137071
:1032F000234A1370234A1370234B1B7813B1152BE9
:1033000005D008E040F21332204B1A6003E040F28F
:1033100013321F4B1A601F4B1B78012B02D0052B59
:1033200005D008E04FF451721B4B1A6003E04FF4D4
:1033300051721A4B1A60C0F34432194B1A70C0F321
:1033400047125A7000F01F00987204229A700221EE
:10335000D9745A7588221A743C22DA704022114BB3
:103360001A704FF40052A3F229331A60704700BF5D
:10337000348004407892FF1FF191FF1F8092FF1F5D
:103380007992FF1FF091FF1F3492FF1F40A004406D
:1033900018C004406A87FF1F44A004401CC00440BA
:1033A00000A006402DE400E0164B9B7803F0EC03F0
:1033B00000F00302134310F0040F18BF43F0100392
:1033C000104A937000F00F03042B04D11346927936
:1033D00042F040029A710B4B5A7902F0EF0210F062
:1033E000100F18BF42F01002064B5A719B7903F080
:1033F000EF0310F0200F18BF43F01003014A937140
:10340000704700BF00A0064010B5144B1B6813F4B2
:10341000806F21D0124B1B7813F0FF0F06D0104C99
:10342000FFF78CFE237813F0FF0FF9D14FF4005211
:103430000C4B1A6000230C4AD37040F203120B4964
:103440000A6004310A600A4A13700A4A13700A4B70
:103450001B680BB101221A7010BD00BF34800440FC
:10346000F091FF1F84E100E000A0064040A004406E
:103470007892FF1FF191FF1FEC91FF1F10B50446DA
:10348000094A137813F0FF0FFBD120460121FEF704
:1034900093FE20460021FEF76BFE044B53F83420C8
:1034A000034B1A6010BD00BFF091FF1F18600000B1
:1034B0007C92FF1F10B40C4609B140F08000184BFD
:1034C0001B78984228D0174A126812F4806F21D0D6
:1034D00003F07F03012B02D0052B04D006E000226D
:1034E000114B1A6002E00022104B1A60002C0CBF36
:1034F0004422602200F07F03012B02D0052B05D06F
:1035000008E042F44072084B1A6003E042F4407253
:10351000064B1A60024B18705DF8044B704700BFF1
:103520006A87FF1F3480044044A004401CC004404C
:10353000114B1B7898421ED0104A126812F4806F0B
:1035400017D013B1152B04D006E000220C4B1A60E3
:1035500002E000220B4B1A6010B1152805D008E0DC
:1035600040F21332064B1A6003E040F21332054B6F
:103570001A60014B187070473492FF1F348004406A
:1035800040A0044018C0044010B50D4B1B6813F454
:10359000806F12D021280CD80A4C0B4B53F83030D6
:1035A00023600121FEF708FE236800221A70012023
:1035B00010BD0020034B186010BD002010BD00BFDF
:1035C00034800440EC91FF1F18600000114B1B6811
:1035D00013F4806F1BD0122804D140F202320E4B3C
:1035E0001A600DE0142804D140F202320B4B1A602D
:1035F00006E00B4B5A7B02F0FE025A730020704724
:10360000074B5A7B42F001025A7301207047002099
:10361000704700BF348004400CA0044014C0044034
:1036200000A006402DE9F04107461F4B1B6813F42C
:10363000806F37D01D4B1B680BB101221A701C4BD9
:103640001C780134402C28BF00241A4D1A4EDFF894
:103650006C8017E0FEF75CFD40280FDC337913F037
:10366000800F0FD02B780133402B28BF002318F890
:103670000320D2B2F271DBB22B7003E0FF2801DD30
:10368000FFF75CFD2B78DBB29C42E3D0FFB20B4B23
:103690001F5501220A4B1A70E4B2054B1C70BC2264
:1036A000054BDA70BDE8F081348004407C92FF1F46
:1036B0008092FF1F7992FF1F00A00640F491FF1F28
:1036C000F091FF1F2DE9F84F0746284B1B6813F4B4
:1036D000806F49D0264B1B680BB101221A7007EB93
:1036E000010B5F453DD2DFF89890224EDFF88C80C9
:1036F000DFF890A099F800400134402C28BF002446
:103700003578EDB2A54220D1BC2388F80330FEF70E
:10371000FFFC402811DC98F8043013F0800F10D023
:1037200033780133402B28BF00231AF80320D2B28C
:1037300088F80720DBB2337003E0FF2801DDFFF7D4
:10374000FDFC3378DBB29D42E1D017F8013B0AF86B
:1037500004300122084B1A70E4B289F800405F453A
:10376000C8D1BC22054BDA70BDE8F88F3480044024
:103770007C92FF1F7992FF1FF091FF1F00A006406F
:103780008092FF1FF491FF1F10B5064B1B7813F0BA
:10379000FF0F06D0034CFFF7D1FC237813F0FF0F87
:1037A000F9D110BDF091FF1F064B1B78DBB2064A22
:1037B0001278D2B293422CBF3F3202F1FF32D01ABC
:1037C000704700BF8092FF1F7992FF1F054B18784A
:1037D000C0B2054B1B78DBB2984238BF4030C01AEC
:1037E000704700BF7892FF1FF191FF1F10B4184B74
:1037F0001A78D2B2174B1B78DBB29A4218D0013339
:103800003F2B18D81449C85CC0B2DCB211490C7007
:1038100012490968C9B19A4203D300E00023D31AC0
:1038200001E04032D31A1A2B0FDC00230B700CE09E
:103830004FF0FF3009E0084B1878C0B20021054B6B
:103840001970064B19680029E8D15DF8044B7047E0
:103850007892FF1FF191FF1F3892FF1FEC91FF1F1D
:10386000094B1A78D2B2094B1B78DBB29A4207D0C7
:103870000133402B28BF0023054AD05CC0B27047FB
:103880004FF0FF30704700BF7892FF1FF191FF1F8C
:103890003892FF1F0D4B1B6813F4806F14D00C4B34
:1038A000DA7802F0CB02DA7040225A74DA7842F009
:1038B0003402DA70074B1A78D2B2074B1A70074BF2
:1038C0001B680BB100221A70704700BF348004409F
:1038D00000A00640F191FF1F7892FF1FEC91FF1F9F
:1038E00070B43D4B1B7913F0300F33D072B63A4BA6
:1038F0009B7D03F0FF022BB9374BDA7940225A74D3
:1039000062B627E062B6354B1978C9B2344B1C78E1
:10391000E4B2314D334EEB79D8B24B1C402B28BF6B
:103920000023A3421CBFF0541946531E13F0FF029C
:10393000F1D1CAB2294B1A702B4B1B6853B1A1426B
:103940002EBFC4EB0101C4F1400409192729C4BFEB
:1039500001221A70204BDA78D2B212F0800F27D0F1
:103960001B7913F0800F23D0204B1C78E4B2204B3E
:103970001B78DBB29C4210D017491E4D01E0A342D8
:103980000BD00133402B28BF00230879E85CC0B27C
:10399000C871087DC0B20728F1D9DBB214490B7099
:1039A0000D4B1B7913F0800F02D07C210A4BD9708C
:1039B00012F0400F0ED0084B1B7913F0400F09D0C6
:1039C00000220D4B1A700D4B1B6803B11A703C227C
:1039D000014BDA7070BC704700A006407892FF1F60
:1039E000F191FF1F3892FF1FEC91FF1F8092FF1F84
:1039F0007992FF1FF491FF1FF091FF1F7C92FF1F30
:103A0000254B1A6842F400621A600023234A13709F
:103A1000234A1370234A1370234A1370234A1370E6
:103A2000234B1B78092B02D01A2B05D008E040F25B
:103A30001332204B1A6003E040F213321E4B1A601F
:103A40001E4B1B780A2B02D01F2B05D008E04FF429
:103A500051721B4B1A6003E04FF45172194B1A60FC
:103A6000C0F34432184B1A70C0F347125A7000F07A
:103A70001F00987204229A700221D9745A75882204
:103A80001A743C22DA704022104B1A704FF4004234
:103A9000A3F22B331A60704734800440F492FF1F66
:103AA0008992FF1FFC92FF1FF592FF1F8892FF1F54
:103AB0006B87FF1F0CB0044004D004406C87FF1FCD
:103AC00010B0044000D0044000B006402FE400E0F5
:103AD000164B9B7803F0EC0300F00302134310F045
:103AE000040F18BF43F01003104A937000F00F0347
:103AF000042B04D11346927942F040029A710B4B89
:103B00005A7902F0EF0210F0100F18BF42F01002C5
:103B1000064B5A719B7903F0EF0310F0200F18BF8A
:103B200043F01003014A9371704700BF00B0064094
:103B300010B5224B1B6813F4006F3ED0204B1B784E
:103B400013F0FF0F06D01E4CFFF7F8FA237813F09E
:103B5000FF0FF9D14FF400421A4B1A6000221A4BA2
:103B6000DA701A4B1B78092B02D01A2B05D008E00B
:103B700040F20312164B1A6003E040F20312154B99
:103B80001A60154B1B7803F07F030A2B02D01F2B02
:103B900005D008E040F20312104B1A6003E040F237
:103BA00003120F4B1A6000230E4A13700E4A137053
:103BB0000E4B1B680BB101221A7010BD34800440FB
:103BC0008892FF1F84E100E000B006406B87FF1F72
:103BD0000CB0044004D004406C87FF1F10B00440B8
:103BE00000D00440F492FF1F8992FF1F8492FF1FB0
:103BF00010B50446094A137813F0FF0FFBD1204695
:103C00000121FEF7D9FA20460021FEF7B1FA044B54
:103C100053F83420034B1A6010BD00BF8892FF1F79
:103C200018600000F892FF1F10B40C4609B140F074
:103C30008000184B1B78984228D0174A126812F45B
:103C4000006F21D003F07F030A2B02D01F2B04D07A
:103C500006E00022114B1A6002E00022104B1A60AD
:103C6000002C0CBF4422602200F07F030A2B02D0FC
:103C70001F2B05D008E042F44072084B1A6003E0A5
:103C800042F44072064B1A60024B18705DF8044B08
:103C9000704700BF6C87FF1F3480044010B00440A1
:103CA00000D00440124B1B78984220D0114A126871
:103CB00012F4006F19D0092B02D01A2B04D006E0A1
:103CC00000220D4B1A6002E000220C4B1A600928FA
:103CD00002D01A2805D008E040F21332064B1A60D1
:103CE00003E040F21332054B1A60014B1870704725
:103CF0006B87FF1F348004400CB0044004D00440A4
:103D000010B50D4B1B6813F4006F12D021280CD88E
:103D10000A4C0B4B53F8303023600121FEF74CFA6C
:103D2000236800221A70012010BD0020034B186088
:103D300010BD002010BD00BF348004408492FF1FDE
:103D4000186000000D4B1B6813F4006F13D0172888
:103D50000AD140F202320A4B1A600A4B5A7B42F0F7
:103D600001025A7301207047064B5A7B02F0FE0293
:103D70005A73002070470020704700BF3480044011
:103D800008B0044000B006402DE9F04107461F4B43
:103D90001B6813F4006F37D01D4B1B680BB1012259
:103DA0001A701C4B1C780134282C28BF00241A4D93
:103DB0001A4EDFF86C8017E0FEF7AAF940280FDCF6
:103DC000337913F0800F0FD02B780133282B28BFC5
:103DD000002318F80320D2B2F271DBB22B7003E09B
:103DE000FF2801DDFFF7AAF92B78DBB29C42E3D074
:103DF000FFB20B4B1F5501220A4B1A70E4B2054B60
:103E00001C70BC22054BDA70BDE8F08134800440A0
:103E1000F892FF1FFC92FF1FF592FF1F00B00640B3
:103E20008C92FF1F8892FF1F2DE9F84F0746284B01
:103E30001B6813F4006F49D0264B1B680BB101229D
:103E40001A7007EB010B5F453DD2DFF89890224EC8
:103E5000DFF88C80DFF890A099F800400134282C1E
:103E600028BF00243578EDB2A54220D1BC2388F8C4
:103E70000330FEF74DF9402811DC98F8043013F0B8
:103E8000800F10D033780133282B28BF00231AF875
:103E90000320D2B288F80720DBB2337003E0FF289A
:103EA00001DDFFF74BF93378DBB29D42E1D017F823
:103EB000013B0AF804300122084B1A70E4B289F879
:103EC00000405F45C8D1BC22054BDA70BDE8F88FD1
:103ED00034800440F892FF1FF592FF1F8892FF1F65
:103EE00000B00640FC92FF1F8C92FF1F10B5064BDE
:103EF0001B7813F0FF0F06D0034CFFF71FF9237850
:103F000013F0FF0FF9D110BD8892FF1F064B1B78ED
:103F1000DBB2064A1278D2B293422CBF273202F1AA
:103F2000FF32D01A704700BFFC92FF1FF592FF1FAF
:103F3000054B1878C0B2054B1B78DBB2984238BFEE
:103F40004030C01A704700BFF492FF1F8992FF1FD4
:103F500010B4184B1A78D2B2174B1B78DBB29A42C6
:103F600018D001333F2B18D81449C85CC0B2DCB25A
:103F700011490C7012490968C9B19A4203D300E093
:103F80000023D31A01E04032D31A1A2B0FDC00238E
:103F90000B700CE04FF0FF3009E0084B1878C0B20E
:103FA0000021054B1970064B19680029E8D15DF80E
:103FB000044B7047F492FF1F8992FF1FB492FF1FBA
:103FC0008492FF1F094B1A78D2B2094B1B78DBB2DF
:103FD0009A4207D00133402B28BF0023054AD05C0A
:103FE000C0B270474FF0FF30704700BFF492FF1F20
:103FF0008992FF1FB492FF1F0D4B1B6813F4006FD3
:1040000014D00C4BDA7802F0CB02DA7040225A74EA
:10401000DA7842F03402DA70074B1A78D2B2074BE2
:104020001A70074B1B680BB100221A70704700BF53
:104030003480044000B006408992FF1FF492FF1FB5
:104040008492FF1F70B43D4B1B7913F0300F33D0B7
:1040500072B63A4B9B7D03F0FF022BB9374BDA79EE
:1040600040225A7462B627E062B6354B1978C9B25D
:10407000344B1C78E4B2314D334EEB79D8B24B1C43
:10408000402B28BF0023A3421CBFF0541946531EE7
:1040900013F0FF02F1D1CAB2294B1A702B4B1B68E7
:1040A00053B1A1422EBFC4EB0101C4F14004091970
:1040B0002729C4BF01221A70204BDA78D2B212F03D
:1040C000800F27D01B7913F0800F23D0204B1C7852
:1040D000E4B2204B1B78DBB29C4210D017491E4D36
:1040E00001E0A3420BD00133282B28BF002308791D
:1040F000E85CC0B2C871087DC0B20728F1D9DBB254
:1041000014490B700D4B1B7913F0800F02D07C21EA
:104110000A4BD97012F0400F0ED0084B1B7913F0E8
:10412000400F09D000220D4B1A700D4B1B6803B1D4
:104130001A703C22014BDA7070BC704700B0064028
:10414000F492FF1F8992FF1FB492FF1F8492FF1FFA
:10415000FC92FF1FF592FF1F8C92FF1F8892FF1F9A
:10416000F892FF1F174B1A6842F480521A6000231E
:10417000154A1370154A1370154A1370154A1370B7
:10418000154A137040F21331144A11604FF4517103
:1041900004321160C0F34431114A1170C0F3471169
:1041A000517000F01F009072937013742C23D37021
:1041B00040220C4B1A704FF40032A3F22D331A60D8
:1041C000704700BF348004407093FF1F0593FF1FAA
:1041D0007893FF1F7193FF1F0493FF1F08C00440D3
:1041E00000C0064031E400E0164B9B7803F0EC037E
:1041F00000F00302134310F0040F18BF43F0100344
:10420000104A937000F00F03042B04D113469279E7
:1042100042F040029A710B4B5A7902F0EF0210F013
:10422000100F18BF42F01002064B5A719B7903F031
:10423000EF0310F0200F18BF43F01003014A9371F1
:10424000704700BF00C0064010B5144B1B6813F444
:10425000805F21D0124B1B7813F0FF0F06D0104C5B
:10426000FEF76CFF237813F0FF0FF9D14FF4003203
:104270000C4B1A6000230C4AD37040F203120B4916
:104280000A6004310A600A4A13700A4A13700A4B22
:104290001B680BB101221A7010BD00BF34800440AE
:1042A0000493FF1F84E100E000C0064008C0044002
:1042B0007093FF1F0593FF1F0093FF1F10B5044667
:1042C000094A137813F0FF0FFBD120460121FDF7B7
:1042D00073FF20460021FDF74BFF044B53F83420B9
:1042E000034B1A6010BD00BF0493FF1F186000004D
:1042F0007493FF1F10B40C4609B140F08000104BBE
:104300001B78984219D00F4A126812F4805F12D0BD
:1043100003F07F03082B02D100220B4B1A60002C04
:104320000CBF4422602200F07F03082B03D142F42B
:104330004072054B1A60024B18705DF8044B7047D1
:104340006D87FF1F348004400CC00440704700BFDD
:1043500010B50D4B1B6813F4805F12D021280CD8C8
:104360000A4C0B4B53F8303023600121FDF724FF3A
:10437000236800221A70012010BD0020034B186032
:1043800010BD002010BD00BF348004400093FF1F0B
:10439000186000000D4B1B6813F4805F13D00E28CB
:1043A0000AD140F202320A4B1A600A4B5A7B42F0A1
:1043B00001025A7301207047064B5A7B02F0FE023D
:1043C0005A73002070470020704700BF34800440BB
:1043D00004C0044000C006402DE9F04107461F4BD1
:1043E0001B6813F4805F37D01D4B1B680BB1012293
:1043F0001A701C4B1C780134282C28BF00241A4D3D
:104400001A4EDFF86C8017E0FDF782FE40280FDCC3
:10441000337913F0800F0FD02B780133282B28BF6E
:10442000002318F80320D2B2F271DBB22B7003E044
:10443000FF2801DDFEF782FE2B78DBB29C42E3D041
:10444000FFB20B4B1F5501220A4B1A70E4B2054B09
:104450001C70AC22054BDA70BDE8F081348004405A
:104460007493FF1F7893FF1F7193FF1F00C00640D6
:104470000893FF1F0493FF1F38B505460C4629B16A
:1044800015F8010BFFF7A8FF013CF9D138BD00BFBB
:1044900010B5064B1B7813F0FF0F06D0034CFEF748
:1044A0004DFE237813F0FF0FF9D110BD0493FF1FC9
:1044B000064B1B78DBB2064A1278D2B293422CBF6D
:1044C000273202F1FF32D01A704700BF7893FF1FE6
:1044D0007193FF1F054B1878C0B2054B1B78DBB2F8
:1044E000984238BF4030C01A704700BF7093FF1F1A
:1044F0000593FF1F10B4184B1A78D2B2174B1B78D4
:10450000DBB29A4218D001333F2B18D81449C85C4B
:10451000C0B2DCB211490C7012490968C9B19A42A3
:1045200003D300E00023D31A01E04032D31A1A2B40
:104530000FDC00230B700CE04FF0FF3009E0084B5C
:104540001878C0B20021054B1970064B1968002974
:10455000E8D15DF8044B70477093FF1F0593FF1F70
:104560003093FF1F0093FF1F094B1A78D2B2094BFB
:104570001B78DBB29A4207D00133402B28BF0023BF
:10458000054AD05CC0B270474FF0FF30704700BFA3
:104590007093FF1F0593FF1F3093FF1F054B1A7881
:1045A000D2B2054B1A70054B1B680BB100221A7072
:1045B000704700BF0593FF1F7093FF1F0093FF1FFD
:1045C0002F4B1B7913F0200F23D02D4BDB79D9B261
:1045D0002C4B1B780133402B28BF00232A4A12782A
:1045E000D2B29A4204D0294AD154D9B2254A117084
:1045F000274A116869B1274A1278D2B293422EBF76
:10460000C2EB0303C2F140029B18272BC4BF012356
:104610000B701B4BDB78DBB213F0800F1CD0184AF9
:10462000127912F0800F17D01B4A1178C9B2194ABB
:104630001278D2B2914203D16C21114AD1700BE0B1
:104640000132282A28BF00221449885CC0B20C49D4
:10465000C871D2B20F490A7013F0400F0ED0084B48
:104660001B7913F0400F09D000220D4B1A700D4B2F
:104670001B6803B11A702C22014BDA70704700BF1F
:1046800000C006407093FF1F0593FF1F3093FF1F6C
:104690000093FF1F7193FF1F7893FF1F0893FF1F65
:1046A0000493FF1F7493FF1F00B585B072B61B4BB8
:1046B00070221A7041211A4A11700F21013A1170AB
:1046C00080221A701A46137813F0800FFBD0154B16
:1046D000186862B6144B98429CBF00EB8000400003
:1046E00001A90A22FEF7D6FD9DF804307BB908E047
:1046F00001A9595C31B19180023201330A2BF7D103
:1047000000E0002301335B00084A137003E0074A0E
:1047100053800123ECE705B05DF804FB0000024084
:1047200007000240080002407F969800FC87FF1FA8
:1047300008B503681B68C9B2984708BD08B5036887
:104740001B68C9B2984708BD08B503681B68C9B2A1
:10475000984708BD08B503681B68C9B2984708BDEB
:1047600008B54B0803F1376000F5D830B0FBF1F025
:10477000FEF7B2FD08BD00BF10B514464B0803F1AB
:10478000376000F5D830B0FBF1F0FEF7A5FD20460C
:10479000FEF70AFE10BD00BF08B5FEF735FE08BDE6
:1047A00008B50846FEF76AFE08BD00BF08B5084612
:1047B000FEF7BEFE08BD00BF08B508461146FEF76D
:1047C00079FE08BD08B50846FEF7DEFE003018BFCA
:1047D000012008BD08B50846FEF7F8FE003018BFF6
:1047E000012008BD08B5FEF7F1FF08BD08B5FFF7C9
:1047F00037F808BD08B5FEF7F9FF08BD08B5FEF7A4
:10480000C3FF08BD08B5FFF745F808BD08B5FEF7BA
:10481000CBFF08BD08B50846FEF704FF012008BD20
:1048200008B50846FEF7FEFE012008BD10B5144687
:1048300008461146FEF746FF204610BD38B50D4626
:10484000084601F001F9044628462146FEF73AFFE2
:10485000204638BD704700BF044B00221A714FF448
:104860007A7199601A73024A1A6070477C93FF1F2D
:10487000B861000008B503681B68C9B2984708BD55
:1048800008B503681B68C9B2984708BD08B5036836
:104890001B68C9B2984708BD08B503681B68C9B250
:1048A000984708BD08B54B0803F1376000F5D830CC
:1048B000B0FBF1F0FFF7A4F808BD00BF10B5144637
:1048C0004B0803F1376000F5D830B0FBF1F0FFF78B
:1048D00097F82046FFF7FCF810BD00BF08B5FFF7BA
:1048E00027F908BD08B50846FFF782F908BD00BFE3
:1048F00008B50846FFF7D6F908BD00BF08B5084659
:104900001146FFF791F908BD08B50846FFF7F8F919
:10491000003018BF012008BD08B50846FFF712FA9D
:10492000003018BF012008BD08B5FFF701FB08BD26
:1049300008B5FFF747FB08BD08B5FFF709FB08BD41
:1049400008B5FFF7D3FA08BD08B5FFF755FB08BD5A
:1049500008B5FFF7DBFA08BD08B50846FFF714FAFB
:10496000012008BD08B50846FFF70EFA012008BD72
:1049700010B5144608461146FFF756FA204610BDFA
:1049800038B50D46084601F05FF804462846214632
:10499000FFF74AFA204638BD704700BF044B00229B
:1049A0001A714FF47A7199601A73024A1A6070474B
:1049B0008C93FF1F1862000008B503681B68C9B21A
:1049C000984708BD08B503681B68C9B2984708BD79
:1049D00008B503681B68C9B2984708BD08B50368E5
:1049E0001B68C9B2984708BD08B54B0803F1B7600A
:1049F00000F55840B0FBF1F0FFF7B4FB08BD00BF75
:104A000010B514464B0803F1B76000F55840B0FBF1
:104A1000F1F0FFF7A7FB2046FFF7E6FB10BD00BF54
:104A200008B5FFF711FC08BD08B50846FFF746FCBE
:104A300008BD00BF08B50846FFF788FC08BD00BFE9
:104A400008B508461146FFF755FC08BD08B50846ED
:104A5000FFF77EFC003018BF012008BD08B50846EE
:104A6000FFF798FC003018BF012008BD08B5FFF71C
:104A700031FD08BD08B5FFF777FD08BD08B5FFF7A4
:104A800039FD08BD08B5FFF703FD08BD08B5FFF700
:104A900085FD08BD08B5FFF70BFD08BD08B5084644
:104AA000FFF79AFC012008BD08B50846FFF794FC03
:104AB000012008BD10B5144608461146FFF7DCFC7E
:104AC000204610BD38B50D46084600F0BDFF04462F
:104AD00028462146FFF7D0FC204638BD704700BF6E
:104AE000044B00221A714FF47A7199601A73024ACA
:104AF0001A6070479C93FF1F7862000081F00041AC
:104B000002E000BF83F0004330B54FEA41044FEAB2
:104B1000430594EA050F08BF90EA020F1FBF54EA4D
:104B2000000C55EA020C7FEA645C7FEA655C00F0E9
:104B3000E2804FEA5454D4EB5555B8BF6D420CDDBA
:104B40002C4480EA020281EA030382EA000083EA3D
:104B5000010180EA020281EA0303362D88BF30BDDD
:104B600011F0004F4FEA01314FF4801C4CEA113133
:104B700002D0404261EB410113F0004F4FEA033392
:104B80004CEA133302D0524263EB430394EA050F1D
:104B900000F0A780A4F10104D5F1200E0DDB02FA8C
:104BA0000EFC22FA05F2801841F1000103FA0EF220
:104BB000801843FA05F359410EE0A5F120050EF1E6
:104BC000200E012A03FA0EFC28BF4CF0020C43FA17
:104BD00005F3C01851EBE37101F0004507D54FF024
:104BE000000EDCF1000C7EEB00006EEB0101B1F574
:104BF000801F1BD3B1F5001F0CD349085FEA3000BA
:104C00004FEA3C0C04F101044FEA445212F5800FC4
:104C100080F09A80BCF1004F08BF5FEA500C50F161
:104C2000000041EB045141EA050130BD5FEA4C0C44
:104C3000404141EB010111F4801FA4F10104E9D1CD
:104C400091F0000F04BF01460020B1FA81F308BFC4
:104C50002033A3F10B03B3F120020CDA0C3208DD90
:104C600002F1140CC2F10C0201FA0CF021FA02F16B
:104C70000CE002F11402D8BFC2F1200C01FA02F1DB
:104C800020FA0CFCDCBF41EA0C019040E41AA2BF00
:104C900001EB0451294330BD6FEA04041F3C1CDAC8
:104CA0000C340EDC04F11404C4F1200220FA04F0E8
:104CB00001FA02F340EA030021FA04F345EA030192
:104CC00030BDC4F10C04C4F1200220FA02F001FA54
:104CD00004F340EA0300294630BD21FA04F02946D6
:104CE00030BD94F0000F83F4801306BF81F480116F
:104CF0000134013D4EE77FEA645C18BF7FEA655CE2
:104D000029D094EA050F08BF90EA020F05D054EAB3
:104D1000000C04BF1946104630BD91EA030F1EBFB8
:104D20000021002030BD5FEA545C05D140004941BC
:104D300028BF41F0004130BD14F580043CBF01F5AF
:104D4000801130BD01F0004545F0FE4141F4700195
:104D50004FF0000030BD7FEA645C1ABF1946104670
:104D60007FEA655C1CBF0B46024650EA013406BF71
:104D700052EA033591EA030F41F4002130BD00BF30
:104D800090F0000F04BF0021704730B54FF48064ED
:104D900004F132044FF000054FF0000150E700BF6E
:104DA00090F0000F04BF0021704730B54FF48064CD
:104DB00004F1320410F0004548BF40424FF00001BA
:104DC0003EE700BF42004FEAE2014FEA31014FEAFD
:104DD00002701FBF12F07F4393F07F4F81F060514C
:104DE000704792F0000F14BF93F07F4F704730B5BB
:104DF0004FF4607401F0004521F0004120E700BF4E
:104E000050EA010208BF704730B54FF000050AE0D4
:104E100050EA010208BF704730B511F0004502D5D5
:104E2000404261EB41014FF4806404F132045FEAD7
:104E3000915C3FF4DCAE4FF003025FEADC0C18BF7C
:104E400003325FEADC0C18BF033202EBDC02C2F172
:104E5000200300FA03FC20FA02F001FA03FE40EA04
:104E60000E0021FA02F11444C1E600BF70B54FF004
:104E7000FF0C4CF4E06C1CEA11541DBF1CEA1355E6
:104E800094EA0C0F95EA0C0F00F0DEF82C4481EA4E
:104E9000030621EA4C5123EA4C5350EA013518BF6E
:104EA00052EA033541F4801143F4801338D0A0FB5B
:104EB00002CE4FF00005E1FB02E506F00042E0FB08
:104EC00003E54FF00006E1FB03569CF0000F18BF0E
:104ED0004EF0010EA4F1FF04B6F5007F64F54074B6
:104EE00004D25FEA4E0E6D4146EB060642EAC62149
:104EF00041EA55514FEAC52040EA5E504FEACE2EB6
:104F0000B4F1FD0C88BFBCF5E06F1ED8BEF1004FB8
:104F100008BF5FEA500E50F1000041EB045170BD34
:104F200006F0004646EA010140EA020081EA030178
:104F3000B4EB5C04C2BFD4EB0C0541EA045170BD74
:104F400041F480114FF0000E013C00F3AB8014F1EE
:104F5000360FDEBF002001F0004170BDC4F1000437
:104F6000203C35DA0C341BDC04F11404C4F12005B8
:104F700000FA05F320FA04F001FA05F240EA020013
:104F800001F0004221F0004110EBD37021FA04F649
:104F900042EB06015EEA430E08BF20EAD37070BD03
:104FA000C4F10C04C4F1200500FA04F320FA05F062
:104FB00001FA04F240EA020001F0004110EBD37064
:104FC00041F100015EEA430E08BF20EAD37070BDD4
:104FD000C4F1200500FA05F24EEA020E20FA04F3AD
:104FE00001FA05F243EA020321FA04F001F000415C
:104FF00021FA04F220EA020000EBD3705EEA430ECD
:1050000008BF20EAD37070BD94F0000F0FD101F0FB
:105010000046400041EB010111F4801F08BF013C34
:10502000F7D041EA060195F0000F18BF704703F072
:105030000046520043EB030313F4801F08BF013DF9
:10504000F7D043EA0603704794EA0C0F0CEA1355B5
:1050500018BF95EA0C0F0CD050EA410618BF52EA6F
:105060004306D1D181EA030101F000414FF0000075
:1050700070BD50EA410606BF1046194652EA430683
:1050800019D094EA0C0F02D150EA013613D195EAF7
:105090000C0F05D152EA03361CBF104619460AD13F
:1050A00081EA030101F0004141F0FE4141F4700149
:1050B0004FF0000070BD41F0FE4141F4780170BD39
:1050C00070B54FF0FF0C4CF4E06C1CEA11541DBF9E
:1050D0001CEA135594EA0C0F95EA0C0F00F0A7F8A0
:1050E000A4EB050481EA030E52EA03354FEA0131CD
:1050F00000F088804FEA03334FF0805545EA1313E0
:1051000043EA12634FEA022245EA111545EA1065A7
:105110004FEA00260EF000419D4208BF964244F13E
:10512000FD0404F5407402D25B084FEA3202B61A5D
:1051300065EB03055B084FEA32024FF480104FF431
:10514000002CB6EB020E75EB030E22BFB61A7546A5
:1051500040EA0C005B084FEA3202B6EB020E75EB38
:10516000030E22BFB61A754640EA5C005B084FEAA0
:105170003202B6EB020E75EB030E22BFB61A75466D
:1051800040EA9C005B084FEA3202B6EB020E75EB78
:10519000030E22BFB61A754640EADC0055EA060E39
:1051A00018D04FEA051545EA16754FEA06164FEA7C
:1051B000C30343EA52734FEAC2025FEA1C1CC0D128
:1051C00011F4801F0BD141EA00014FF000004FF0B5
:1051D000004CB6E711F4801F04BF01430020B4F176
:1051E000FD0C88BFBCF5E06F3FF6AFAEB5EB030C2E
:1051F00004BFB6EB020C5FEA500C50F1000041EB2B
:10520000045170BD0EF0004E4EEA113114EB5C04F7
:10521000C2BFD4EB0C0541EA045170BD41F48011CA
:105220004FF0000E013C90E645EA060E8DE60CEAD2
:10523000135594EA0C0F08BF95EA0C0F3FF43BAFEF
:1052400094EA0C0F0AD150EA01347FF434AF95EAA6
:105250000C0F7FF425AF104619462CE795EA0C0F8A
:1052600006D152EA03353FF4FDAE1046194622E757
:1052700050EA410618BF52EA43067FF4C5AE50EA31
:1052800041047FF40DAF52EA43057FF4EBAE12E721
:105290004FF0FF3C06E000BF4FF0010C02E000BF02
:1052A0004FF0010C4DF804CD4FEA410C7FEA6C5CE5
:1052B0004FEA430C18BF7FEA6C5C1BD001B050EA88
:1052C000410C0CBF52EA430C91EA030F02BF90EA73
:1052D000020F0020704710F1000F91EA030F58BF32
:1052E000994208BF90422CBFD8176FEAE37040F094
:1052F000010070474FEA410C7FEA6C5C02D150EA32
:10530000013C07D14FEA430C7FEA6C5CD6D152EAEC
:10531000033CD3D05DF8040B704700BF84461046B1
:1053200062468C461946634600E000BF01B5FFF7B0
:10533000B7FF002848BF10F1000F01BD4DF808ED80
:10534000FFF7F4FF0CBF012000205DF808FB00BF51
:105350004DF808EDFFF7EAFF34BF012000205DF8AB
:1053600008FB00BF4DF808EDFFF7E0FF94BF0120F8
:1053700000205DF808FB00BF4DF808EDFFF7CEFFF9
:1053800094BF012000205DF808FB00BF4DF808ED38
:10539000FFF7C4FF34BF012000205DF808FB00BF09
:1053A0004FEA410212F5001215D211D56FF478734D
:1053B000B3EB625212D94FEAC12343F0004343EAF0
:1053C000505311F0004F23FA02F018BF40427047CB
:1053D0004FF00000704750EA013005D111F0004055
:1053E00008BF6FF0004070474FF00000704700BFEB
:1053F00070B50F4E0F4D761BB61007D0043D00243C
:10540000013455F8043F9847A642F9D10A4E0B4D96
:10541000761B00F061FFB61008D0043D0024013473
:1054200055F8043F9847A642F9D170BD70BD00BF42
:10543000E4620000E462000000630000E462000037
:10544000024B0146186800F003B800BF408CFF1FF4
:105450002DE9F04F01F10B05162D83B0064627D933
:1054600035F0070527D4A94225D8304600F0D6FAF2
:10547000B5F5FC7F26D2C14F4FEAD50C07EBCC0324
:10548000DC689C4200F0D2816368E268A16823F086
:105490000303234430465D68CA6045F0010591600E
:1054A0005D6000F0BDFA0834204603B0BDE8F08F1F
:1054B0001025A942D9D900240C232046336003B01B
:1054C000BDE8F08F5FEA552C00F08A80BCF1040F34
:1054D00000F260814FEA951C0CF1380C4FEA4C0148
:1054E000A64F07EB8101CC68A14205D10CE0002B4F
:1054F0007ADAE468A14207D0626822F00302531B03
:105500000F2BF4DD0CF1FF3C0CF1010C9B4B3C69C3
:1055100003F1080E744500F07E81616821F00301FB
:105520004A1B0F2A00F36481002AC3F814E0C3F871
:1055300010E06ADAB1F5007F80F03A81C90803EB28
:10554000C1004FEAA1085A688168A1604FF00109C3
:1055500009FA08F848EA0202E0605A608460CC6008
:105560004FEAAC030120984090425BD8024206D13A
:105570002CF0030C400002420CF1040CFAD007EBB3
:10558000CC084446E146E3689C4207D145E1002A45
:1055900080F25681DB689C4200F03F81596821F01F
:1055A00003014A1B0F2AF2DD1C46D3F80CC054F845
:1055B000088F591945F0010942F00105C3F804901C
:1055C0003046C8F80CC0CCF8088079613961C1F860
:1055D0000CE0C1F808E04D608A5000F021FA63E762
:1055E0007E214FF03F0C7BE72244E3685068A168BE
:1055F00040F00105CB6030469960556000F010FA2C
:105600000834204603B0BDE8F08F214430464B6893
:1056100043F001034B6000F003FA0834204603B066
:10562000BDE8F08FBC68636823F00309A94504D383
:10563000C5EB09030F2B00F39180514B514A1968B8
:105640001368013305EB010A04EB090B00F06181DB
:105650000AF5805A0AF10F0A2AF47F6A2AF00F0A23
:1056600030465146019200F0DDF9B0F1FF3F80462F
:10567000019A00F00081834500F2FA80DFF810C142
:10568000DCF80030C3455344CCF8003000F04A81C8
:1056900012683C4901321BBFCBEB080B5B44C1F8DD
:1056A0000080CCF8003018F0070300F01381C3F13C
:1056B0000802C3F5805390440833C244CAF30B0A6E
:1056C000CAEB030A51463046CDF804C000F0AAF9EF
:1056D000431CDDF804C000F03581C8EB00025244E1
:1056E00042F00102DCF80030C7F808805344BC42A5
:1056F000C8F80420CCF80030DFF894A015D0B9F138
:105700000F0F40F2EA806168A9F10C0222F0070253
:1057100001F0010EA118052042EA0E0E0F2AC4F86E
:1057200004E04860886000F21181174ABC68116883
:105730008B4288BF1360154A11688B4288BF136083
:10574000626822F003029542C5EB020301D80F2BD9
:1057500004DC304600F064F90024A5E6621943F049
:10576000010345F0010565603046BA60536000F002
:1057700057F90834204603B0BDE8F08F448CFF1F72
:10578000B493FF1F5090FF1FB093FF1FAC93FF1FF8
:10579000B893FF1FBCF1140F61D9BCF1540F00F294
:1057A0008F804FEA153C0CF16E0C4FEA4C0197E6E6
:1057B0004B0A042B58D9142B00F2AE8003F15B0284
:1057C000500007EB8000DFF8BC818368834200F063
:1057D0008A805A6822F00302914202D29B68984262
:1057E000F7D1D9687A68E160A3608C60DC60B7E6C5
:1057F000611942F0010745F00105656030465961C5
:105800001961C1F80CE0C1F808E04F608A50083413
:1058100000F006F948E65A68A2E609F1010919F014
:10582000030F04F108047FF4AEAE2DE004F1080389
:105830006469A34208BF0CF1020C3FF467AE23E693
:1058400019441C464868DB6854F8082F40F00105ED
:105850004D603046D3609A6000F0E2F824E60CF127
:105860005B0C4FEA4C013BE68A0938325000A8E74E
:10587000BC423FF403AFBC68626822F0030262E7F7
:10588000D8F8008098457BD11CF0030FA8F10803DD
:105890000CF1FF3CF4D17B6823EA00037B604000FD
:1058A00098423FF6BFAE00283FF4BCAE0342CC4660
:1058B0007FF465AE400003420CF1040CFAD05EE6C2
:1058C000BCF5AA7F1AD84FEAD53C0CF1770C4FEA09
:1058D0004C0105E64FF48053EFE60123C8F804308D
:1058E000444600222FE791100120D8F8042000FA46
:1058F00001F10A43C8F80420194674E740F25453F2
:105900009C451BD84FEA954C0CF17C0C4FEA4C019E
:10591000E6E50AF1100AA3E6542B1FD80A0B6E32F3
:1059200050004EE7CBF30B0100297FF4B1AE0AEB38
:105930000901BA6841F001015160F6E6FC214FF01F
:105940007E0CCDE501224FF0000ACBE604F1080100
:10595000304600F01FF9DAF80030E6E6B3F5AA7F2A
:1059600003D8CA0B773250002BE740F254529342CF
:1059700003D88A0C7C32500023E7FC207E2220E7EB
:105980007B688CE7448CFF1FF0B4840743D0541E1F
:10599000002A3ED0CDB2034603E0621E002C38D070
:1059A000144603F8015B9A07F7D1032C2AD9CDB22C
:1059B00045EA05250F2C45EA054515D9A4F1100740
:1059C0003F0903F1100606EB07161A4615605560ED
:1059D0009560D5601032B242F8D104F00F0401375F
:1059E000032C03EB07130DD91E462246043A032A63
:1059F00046F8045BFAD8221F22F003020432134453
:105A000004F003042CB1C9B21C4403F8011BA342E7
:105A1000FBD1F0BC704714460346C6E7704700BF91
:105A2000704700BF38B5074C002305460846236081
:105A3000FCF75AFB431C00D038BD2368002BFBD079
:105A40002B6038BDF493FF1F20F0030110F003001A
:105A5000C0F1000051F8043B00F1040C4FEACC0CFB
:105A60006FF000021CBF22FA0CF213434FF0010C3E
:105A70004CEA0C2C4CEA0C4CA3EB0C0222EA03027D
:105A800012EACC1204BF51F8043B0430F4D013F0F6
:105A9000FF0F1FBF013013F47F4F013013F47F0F4E
:105AA00018BF0130704700BF024B13B1024800F02D
:105AB00005B8704700000000C95A000001460020E8
:105AC0000246034600F034B938B5094D094C641B51
:105AD000A41018BF05EB840505D0013C55F8043D22
